{
  "_format": "hh-sol-artifact-1",
  "contractName": "NFTMinter",
  "sourceName": "contracts/NFTMinter.sol",
  "abi": [
    {
      "inputs": [
        {
          "internalType": "address",
          "name": "_admin2",
          "type": "address"
        },
        {
          "internalType": "address",
          "name": "_admin3",
          "type": "address"
        },
        {
          "internalType": "address",
          "name": "_admin4",
          "type": "address"
        }
      ],
      "stateMutability": "nonpayable",
      "type": "constructor"
    },
    {
      "anonymous": false,
      "inputs": [
        {
          "indexed": true,
          "internalType": "address",
          "name": "owner",
          "type": "address"
        },
        {
          "indexed": true,
          "internalType": "address",
          "name": "approved",
          "type": "address"
        },
        {
          "indexed": true,
          "internalType": "uint256",
          "name": "tokenId",
          "type": "uint256"
        }
      ],
      "name": "Approval",
      "type": "event"
    },
    {
      "anonymous": false,
      "inputs": [
        {
          "indexed": true,
          "internalType": "address",
          "name": "owner",
          "type": "address"
        },
        {
          "indexed": true,
          "internalType": "address",
          "name": "operator",
          "type": "address"
        },
        {
          "indexed": false,
          "internalType": "bool",
          "name": "approved",
          "type": "bool"
        }
      ],
      "name": "ApprovalForAll",
      "type": "event"
    },
    {
      "anonymous": false,
      "inputs": [
        {
          "indexed": false,
          "internalType": "address",
          "name": "account",
          "type": "address"
        }
      ],
      "name": "Paused",
      "type": "event"
    },
    {
      "anonymous": false,
      "inputs": [
        {
          "indexed": true,
          "internalType": "bytes32",
          "name": "role",
          "type": "bytes32"
        },
        {
          "indexed": true,
          "internalType": "bytes32",
          "name": "previousAdminRole",
          "type": "bytes32"
        },
        {
          "indexed": true,
          "internalType": "bytes32",
          "name": "newAdminRole",
          "type": "bytes32"
        }
      ],
      "name": "RoleAdminChanged",
      "type": "event"
    },
    {
      "anonymous": false,
      "inputs": [
        {
          "indexed": true,
          "internalType": "bytes32",
          "name": "role",
          "type": "bytes32"
        },
        {
          "indexed": true,
          "internalType": "address",
          "name": "account",
          "type": "address"
        },
        {
          "indexed": true,
          "internalType": "address",
          "name": "sender",
          "type": "address"
        }
      ],
      "name": "RoleGranted",
      "type": "event"
    },
    {
      "anonymous": false,
      "inputs": [
        {
          "indexed": true,
          "internalType": "bytes32",
          "name": "role",
          "type": "bytes32"
        },
        {
          "indexed": true,
          "internalType": "address",
          "name": "account",
          "type": "address"
        },
        {
          "indexed": true,
          "internalType": "address",
          "name": "sender",
          "type": "address"
        }
      ],
      "name": "RoleRevoked",
      "type": "event"
    },
    {
      "anonymous": false,
      "inputs": [
        {
          "indexed": true,
          "internalType": "address",
          "name": "from",
          "type": "address"
        },
        {
          "indexed": true,
          "internalType": "address",
          "name": "to",
          "type": "address"
        },
        {
          "indexed": true,
          "internalType": "uint256",
          "name": "tokenId",
          "type": "uint256"
        }
      ],
      "name": "Transfer",
      "type": "event"
    },
    {
      "anonymous": false,
      "inputs": [
        {
          "indexed": false,
          "internalType": "address",
          "name": "account",
          "type": "address"
        }
      ],
      "name": "Unpaused",
      "type": "event"
    },
    {
      "inputs": [],
      "name": "DEFAULT_ADMIN_ROLE",
      "outputs": [
        {
          "internalType": "bytes32",
          "name": "",
          "type": "bytes32"
        }
      ],
      "stateMutability": "view",
      "type": "function"
    },
    {
      "inputs": [],
      "name": "MINTER_ROLE",
      "outputs": [
        {
          "internalType": "bytes32",
          "name": "",
          "type": "bytes32"
        }
      ],
      "stateMutability": "view",
      "type": "function"
    },
    {
      "inputs": [],
      "name": "PAUSER_ROLE",
      "outputs": [
        {
          "internalType": "bytes32",
          "name": "",
          "type": "bytes32"
        }
      ],
      "stateMutability": "view",
      "type": "function"
    },
    {
      "inputs": [
        {
          "internalType": "address",
          "name": "to",
          "type": "address"
        },
        {
          "internalType": "uint256",
          "name": "tokenId",
          "type": "uint256"
        }
      ],
      "name": "approve",
      "outputs": [],
      "stateMutability": "nonpayable",
      "type": "function"
    },
    {
      "inputs": [
        {
          "internalType": "address",
          "name": "owner",
          "type": "address"
        }
      ],
      "name": "balanceOf",
      "outputs": [
        {
          "internalType": "uint256",
          "name": "",
          "type": "uint256"
        }
      ],
      "stateMutability": "view",
      "type": "function"
    },
    {
      "inputs": [
        {
          "internalType": "uint256",
          "name": "tokenId",
          "type": "uint256"
        }
      ],
      "name": "burn",
      "outputs": [],
      "stateMutability": "nonpayable",
      "type": "function"
    },
    {
      "inputs": [
        {
          "internalType": "uint256",
          "name": "tokenId",
          "type": "uint256"
        }
      ],
      "name": "getApproved",
      "outputs": [
        {
          "internalType": "address",
          "name": "",
          "type": "address"
        }
      ],
      "stateMutability": "view",
      "type": "function"
    },
    {
      "inputs": [
        {
          "internalType": "bytes32",
          "name": "role",
          "type": "bytes32"
        }
      ],
      "name": "getRoleAdmin",
      "outputs": [
        {
          "internalType": "bytes32",
          "name": "",
          "type": "bytes32"
        }
      ],
      "stateMutability": "view",
      "type": "function"
    },
    {
      "inputs": [
        {
          "internalType": "bytes32",
          "name": "role",
          "type": "bytes32"
        },
        {
          "internalType": "uint256",
          "name": "index",
          "type": "uint256"
        }
      ],
      "name": "getRoleMember",
      "outputs": [
        {
          "internalType": "address",
          "name": "",
          "type": "address"
        }
      ],
      "stateMutability": "view",
      "type": "function"
    },
    {
      "inputs": [
        {
          "internalType": "bytes32",
          "name": "role",
          "type": "bytes32"
        }
      ],
      "name": "getRoleMemberCount",
      "outputs": [
        {
          "internalType": "uint256",
          "name": "",
          "type": "uint256"
        }
      ],
      "stateMutability": "view",
      "type": "function"
    },
    {
      "inputs": [
        {
          "internalType": "bytes32",
          "name": "role",
          "type": "bytes32"
        },
        {
          "internalType": "address",
          "name": "account",
          "type": "address"
        }
      ],
      "name": "grantRole",
      "outputs": [],
      "stateMutability": "nonpayable",
      "type": "function"
    },
    {
      "inputs": [
        {
          "internalType": "bytes32",
          "name": "role",
          "type": "bytes32"
        },
        {
          "internalType": "address",
          "name": "account",
          "type": "address"
        }
      ],
      "name": "hasRole",
      "outputs": [
        {
          "internalType": "bool",
          "name": "",
          "type": "bool"
        }
      ],
      "stateMutability": "view",
      "type": "function"
    },
    {
      "inputs": [
        {
          "internalType": "address",
          "name": "owner",
          "type": "address"
        },
        {
          "internalType": "address",
          "name": "operator",
          "type": "address"
        }
      ],
      "name": "isApprovedForAll",
      "outputs": [
        {
          "internalType": "bool",
          "name": "",
          "type": "bool"
        }
      ],
      "stateMutability": "view",
      "type": "function"
    },
    {
      "inputs": [],
      "name": "name",
      "outputs": [
        {
          "internalType": "string",
          "name": "",
          "type": "string"
        }
      ],
      "stateMutability": "view",
      "type": "function"
    },
    {
      "inputs": [
        {
          "internalType": "uint256",
          "name": "tokenId",
          "type": "uint256"
        }
      ],
      "name": "ownerOf",
      "outputs": [
        {
          "internalType": "address",
          "name": "",
          "type": "address"
        }
      ],
      "stateMutability": "view",
      "type": "function"
    },
    {
      "inputs": [],
      "name": "pause",
      "outputs": [],
      "stateMutability": "nonpayable",
      "type": "function"
    },
    {
      "inputs": [],
      "name": "paused",
      "outputs": [
        {
          "internalType": "bool",
          "name": "",
          "type": "bool"
        }
      ],
      "stateMutability": "view",
      "type": "function"
    },
    {
      "inputs": [
        {
          "internalType": "bytes32",
          "name": "role",
          "type": "bytes32"
        },
        {
          "internalType": "address",
          "name": "account",
          "type": "address"
        }
      ],
      "name": "renounceRole",
      "outputs": [],
      "stateMutability": "nonpayable",
      "type": "function"
    },
    {
      "inputs": [
        {
          "internalType": "bytes32",
          "name": "role",
          "type": "bytes32"
        },
        {
          "internalType": "address",
          "name": "account",
          "type": "address"
        }
      ],
      "name": "revokeRole",
      "outputs": [],
      "stateMutability": "nonpayable",
      "type": "function"
    },
    {
      "inputs": [
        {
          "internalType": "address",
          "name": "to",
          "type": "address"
        },
        {
          "internalType": "string",
          "name": "uri",
          "type": "string"
        }
      ],
      "name": "safeMint",
      "outputs": [],
      "stateMutability": "nonpayable",
      "type": "function"
    },
    {
      "inputs": [
        {
          "internalType": "address",
          "name": "from",
          "type": "address"
        },
        {
          "internalType": "address",
          "name": "to",
          "type": "address"
        },
        {
          "internalType": "uint256",
          "name": "tokenId",
          "type": "uint256"
        }
      ],
      "name": "safeTransferFrom",
      "outputs": [],
      "stateMutability": "nonpayable",
      "type": "function"
    },
    {
      "inputs": [
        {
          "internalType": "address",
          "name": "from",
          "type": "address"
        },
        {
          "internalType": "address",
          "name": "to",
          "type": "address"
        },
        {
          "internalType": "uint256",
          "name": "tokenId",
          "type": "uint256"
        },
        {
          "internalType": "bytes",
          "name": "data",
          "type": "bytes"
        }
      ],
      "name": "safeTransferFrom",
      "outputs": [],
      "stateMutability": "nonpayable",
      "type": "function"
    },
    {
      "inputs": [
        {
          "internalType": "address",
          "name": "operator",
          "type": "address"
        },
        {
          "internalType": "bool",
          "name": "approved",
          "type": "bool"
        }
      ],
      "name": "setApprovalForAll",
      "outputs": [],
      "stateMutability": "nonpayable",
      "type": "function"
    },
    {
      "inputs": [
        {
          "internalType": "bytes4",
          "name": "interfaceId",
          "type": "bytes4"
        }
      ],
      "name": "supportsInterface",
      "outputs": [
        {
          "internalType": "bool",
          "name": "",
          "type": "bool"
        }
      ],
      "stateMutability": "view",
      "type": "function"
    },
    {
      "inputs": [],
      "name": "symbol",
      "outputs": [
        {
          "internalType": "string",
          "name": "",
          "type": "string"
        }
      ],
      "stateMutability": "view",
      "type": "function"
    },
    {
      "inputs": [
        {
          "internalType": "uint256",
          "name": "index",
          "type": "uint256"
        }
      ],
      "name": "tokenByIndex",
      "outputs": [
        {
          "internalType": "uint256",
          "name": "",
          "type": "uint256"
        }
      ],
      "stateMutability": "view",
      "type": "function"
    },
    {
      "inputs": [
        {
          "internalType": "address",
          "name": "owner",
          "type": "address"
        },
        {
          "internalType": "uint256",
          "name": "index",
          "type": "uint256"
        }
      ],
      "name": "tokenOfOwnerByIndex",
      "outputs": [
        {
          "internalType": "uint256",
          "name": "",
          "type": "uint256"
        }
      ],
      "stateMutability": "view",
      "type": "function"
    },
    {
      "inputs": [
        {
          "internalType": "uint256",
          "name": "tokenId",
          "type": "uint256"
        }
      ],
      "name": "tokenURI",
      "outputs": [
        {
          "internalType": "string",
          "name": "",
          "type": "string"
        }
      ],
      "stateMutability": "view",
      "type": "function"
    },
    {
      "inputs": [],
      "name": "totalSupply",
      "outputs": [
        {
          "internalType": "uint256",
          "name": "",
          "type": "uint256"
        }
      ],
      "stateMutability": "view",
      "type": "function"
    },
    {
      "inputs": [
        {
          "internalType": "address",
          "name": "from",
          "type": "address"
        },
        {
          "internalType": "address",
          "name": "to",
          "type": "address"
        },
        {
          "internalType": "uint256",
          "name": "tokenId",
          "type": "uint256"
        }
      ],
      "name": "transferFrom",
      "outputs": [],
      "stateMutability": "nonpayable",
      "type": "function"
    },
    {
      "inputs": [],
      "name": "unpause",
      "outputs": [],
      "stateMutability": "nonpayable",
      "type": "function"
    }
  ],
  "bytecode": "0x60806040523480156200001157600080fd5b5060405162004d6a38038062004d6a833981810160405281019062000037919062000652565b6040518060400160405280600981526020017f4e46544d696e74657200000000000000000000000000000000000000000000008152506040518060400160405280600481526020017f4e46544d000000000000000000000000000000000000000000000000000000008152508160009080519060200190620000bb92919062000538565b508060019080519060200190620000d492919062000538565b5050506000600b60006101000a81548160ff021916908315150217905550620001076000801b33620002a060201b60201c565b620001397f9f2df0fed2c77648de5860a4cc508cd0818c85b8b8a1ab4ceeef8d981c8956a633620002a060201b60201c565b6200016b7f65d7a28e3265b37a6474929f336521b332c1681b933f6cb9f3376673440d862a33620002a060201b60201c565b6200019d7f9f2df0fed2c77648de5860a4cc508cd0818c85b8b8a1ab4ceeef8d981c8956a684620002a060201b60201c565b620001cf7f65d7a28e3265b37a6474929f336521b332c1681b933f6cb9f3376673440d862a84620002a060201b60201c565b620002017f9f2df0fed2c77648de5860a4cc508cd0818c85b8b8a1ab4ceeef8d981c8956a683620002a060201b60201c565b620002337f65d7a28e3265b37a6474929f336521b332c1681b933f6cb9f3376673440d862a83620002a060201b60201c565b620002657f9f2df0fed2c77648de5860a4cc508cd0818c85b8b8a1ab4ceeef8d981c8956a682620002a060201b60201c565b620002977f65d7a28e3265b37a6474929f336521b332c1681b933f6cb9f3376673440d862a82620002a060201b60201c565b50505062000713565b620002b28282620002b660201b60201c565b5050565b620002cd8282620002fe60201b620010121760201c565b620002f981600d6000858152602001908152602001600020620003f060201b620010f31790919060201c565b505050565b6200031082826200042860201b60201c565b620003ec576001600c600084815260200190815260200160002060000160008373ffffffffffffffffffffffffffffffffffffffff1673ffffffffffffffffffffffffffffffffffffffff16815260200190815260200160002060006101000a81548160ff021916908315150217905550620003916200049360201b60201c565b73ffffffffffffffffffffffffffffffffffffffff168173ffffffffffffffffffffffffffffffffffffffff16837f2f8788117e7eff1d82e926ec794901d17c78024a50270940304540a733656f0d60405160405180910390a45b5050565b600062000420836000018373ffffffffffffffffffffffffffffffffffffffff1660001b6200049b60201b60201c565b905092915050565b6000600c600084815260200190815260200160002060000160008373ffffffffffffffffffffffffffffffffffffffff1673ffffffffffffffffffffffffffffffffffffffff16815260200190815260200160002060009054906101000a900460ff16905092915050565b600033905090565b6000620004af83836200051560201b60201c565b6200050a5782600001829080600181540180825580915050600190039060005260206000200160009091909190915055826000018054905083600101600084815260200190815260200160002081905550600190506200050f565b600090505b92915050565b600080836001016000848152602001908152602001600020541415905092915050565b8280546200054690620006dd565b90600052602060002090601f0160209004810192826200056a5760008555620005b6565b82601f106200058557805160ff1916838001178555620005b6565b82800160010185558215620005b6579182015b82811115620005b557825182559160200191906001019062000598565b5b509050620005c59190620005c9565b5090565b5b80821115620005e4576000816000905550600101620005ca565b5090565b600080fd5b600073ffffffffffffffffffffffffffffffffffffffff82169050919050565b60006200061a82620005ed565b9050919050565b6200062c816200060d565b81146200063857600080fd5b50565b6000815190506200064c8162000621565b92915050565b6000806000606084860312156200066e576200066d620005e8565b5b60006200067e868287016200063b565b935050602062000691868287016200063b565b9250506040620006a4868287016200063b565b9150509250925092565b7f4e487b7100000000000000000000000000000000000000000000000000000000600052602260045260246000fd5b60006002820490506001821680620006f657607f821691505b602082108114156200070d576200070c620006ae565b5b50919050565b61464780620007236000396000f3fe608060405234801561001057600080fd5b50600436106101e55760003560e01c80636352211e1161010f578063b88d4fde116100a2578063d539139311610071578063d5391393146105a0578063d547741f146105be578063e63ab1e9146105da578063e985e9c5146105f8576101e5565b8063b88d4fde14610508578063c87b56dd14610524578063ca15c87314610554578063d204c45e14610584576101e5565b806391d14854116100de57806391d148541461048057806395d89b41146104b0578063a217fddf146104ce578063a22cb465146104ec576101e5565b80636352211e146103e657806370a08231146104165780638456cb59146104465780639010d07c14610450576101e5565b80632f2ff15d1161018757806342842e0e1161015657806342842e0e1461036057806342966c681461037c5780634f6ccce7146103985780635c975abb146103c8576101e5565b80632f2ff15d146102ee5780632f745c591461030a57806336568abe1461033a5780633f4ba83a14610356576101e5565b8063095ea7b3116101c3578063095ea7b31461026857806318160ddd1461028457806323b872dd146102a2578063248a9ca3146102be576101e5565b806301ffc9a7146101ea57806306fdde031461021a578063081812fc14610238575b600080fd5b61020460048036038101906101ff919061308b565b610628565b60405161021191906130d3565b60405180910390f35b61022261063a565b60405161022f9190613187565b60405180910390f35b610252600480360381019061024d91906131df565b6106cc565b60405161025f919061324d565b60405180910390f35b610282600480360381019061027d9190613294565b610712565b005b61028c61082a565b60405161029991906132e3565b60405180910390f35b6102bc60048036038101906102b791906132fe565b610837565b005b6102d860048036038101906102d39190613387565b610897565b6040516102e591906133c3565b60405180910390f35b610308600480360381019061030391906133de565b6108b7565b005b610324600480360381019061031f9190613294565b6108d8565b60405161033191906132e3565b60405180910390f35b610354600480360381019061034f91906133de565b61097d565b005b61035e610a00565b005b61037a600480360381019061037591906132fe565b610a35565b005b610396600480360381019061039191906131df565b610a55565b005b6103b260048036038101906103ad91906131df565b610ab1565b6040516103bf91906132e3565b60405180910390f35b6103d0610b22565b6040516103dd91906130d3565b60405180910390f35b61040060048036038101906103fb91906131df565b610b39565b60405161040d919061324d565b60405180910390f35b610430600480360381019061042b919061341e565b610beb565b60405161043d91906132e3565b60405180910390f35b61044e610ca3565b005b61046a6004803603810190610465919061344b565b610cd8565b604051610477919061324d565b60405180910390f35b61049a600480360381019061049591906133de565b610d07565b6040516104a791906130d3565b60405180910390f35b6104b8610d72565b6040516104c59190613187565b60405180910390f35b6104d6610e04565b6040516104e391906133c3565b60405180910390f35b610506600480360381019061050191906134b7565b610e0b565b005b610522600480360381019061051d919061362c565b610e21565b005b61053e600480360381019061053991906131df565b610e83565b60405161054b9190613187565b60405180910390f35b61056e60048036038101906105699190613387565b610e95565b60405161057b91906132e3565b60405180910390f35b61059e60048036038101906105999190613750565b610eb9565b005b6105a8610f15565b6040516105b591906133c3565b60405180910390f35b6105d860048036038101906105d391906133de565b610f39565b005b6105e2610f5a565b6040516105ef91906133c3565b60405180910390f35b610612600480360381019061060d91906137ac565b610f7e565b60405161061f91906130d3565b60405180910390f35b600061063382611123565b9050919050565b6060600080546106499061381b565b80601f01602080910402602001604051908101604052809291908181526020018280546106759061381b565b80156106c25780601f10610697576101008083540402835291602001916106c2565b820191906000526020600020905b8154815290600101906020018083116106a557829003601f168201915b5050505050905090565b60006106d78261119d565b6004600083815260200190815260200160002060009054906101000a900473ffffffffffffffffffffffffffffffffffffffff169050919050565b600061071d82610b39565b90508073ffffffffffffffffffffffffffffffffffffffff168373ffffffffffffffffffffffffffffffffffffffff16141561078e576040517f08c379a0000000000000000000000000000000000000000000000000000000008152600401610785906138bf565b60405180910390fd5b8073ffffffffffffffffffffffffffffffffffffffff166107ad6111e8565b73ffffffffffffffffffffffffffffffffffffffff1614806107dc57506107db816107d66111e8565b610f7e565b5b61081b576040517f08c379a000000000000000000000000000000000000000000000000000000000815260040161081290613951565b60405180910390fd5b61082583836111f0565b505050565b6000600880549050905090565b6108486108426111e8565b826112a9565b610887576040517f08c379a000000000000000000000000000000000000000000000000000000000815260040161087e906139e3565b60405180910390fd5b61089283838361133e565b505050565b6000600c6000838152602001908152602001600020600101549050919050565b6108c082610897565b6108c9816115a5565b6108d383836115b9565b505050565b60006108e383610beb565b8210610924576040517f08c379a000000000000000000000000000000000000000000000000000000000815260040161091b90613a75565b60405180910390fd5b600660008473ffffffffffffffffffffffffffffffffffffffff1673ffffffffffffffffffffffffffffffffffffffff168152602001908152602001600020600083815260200190815260200160002054905092915050565b6109856111e8565b73ffffffffffffffffffffffffffffffffffffffff168173ffffffffffffffffffffffffffffffffffffffff16146109f2576040517f08c379a00000000000000000000000000000000000000000000000000000000081526004016109e990613b07565b60405180910390fd5b6109fc82826115ed565b5050565b7f65d7a28e3265b37a6474929f336521b332c1681b933f6cb9f3376673440d862a610a2a816115a5565b610a32611621565b50565b610a5083838360405180602001604052806000815250610e21565b505050565b610a66610a606111e8565b826112a9565b610aa5576040517f08c379a0000000000000000000000000000000000000000000000000000000008152600401610a9c906139e3565b60405180910390fd5b610aae81611684565b50565b6000610abb61082a565b8210610afc576040517f08c379a0000000000000000000000000000000000000000000000000000000008152600401610af390613b99565b60405180910390fd5b60088281548110610b1057610b0f613bb9565b5b90600052602060002001549050919050565b6000600b60009054906101000a900460ff16905090565b6000806002600084815260200190815260200160002060009054906101000a900473ffffffffffffffffffffffffffffffffffffffff169050600073ffffffffffffffffffffffffffffffffffffffff168173ffffffffffffffffffffffffffffffffffffffff161415610be2576040517f08c379a0000000000000000000000000000000000000000000000000000000008152600401610bd990613c34565b60405180910390fd5b80915050919050565b60008073ffffffffffffffffffffffffffffffffffffffff168273ffffffffffffffffffffffffffffffffffffffff161415610c5c576040517f08c379a0000000000000000000000000000000000000000000000000000000008152600401610c5390613cc6565b60405180910390fd5b600360008373ffffffffffffffffffffffffffffffffffffffff1673ffffffffffffffffffffffffffffffffffffffff168152602001908152602001600020549050919050565b7f65d7a28e3265b37a6474929f336521b332c1681b933f6cb9f3376673440d862a610ccd816115a5565b610cd5611690565b50565b6000610cff82600d60008681526020019081526020016000206116f390919063ffffffff16565b905092915050565b6000600c600084815260200190815260200160002060000160008373ffffffffffffffffffffffffffffffffffffffff1673ffffffffffffffffffffffffffffffffffffffff16815260200190815260200160002060009054906101000a900460ff16905092915050565b606060018054610d819061381b565b80601f0160208091040260200160405190810160405280929190818152602001828054610dad9061381b565b8015610dfa5780601f10610dcf57610100808354040283529160200191610dfa565b820191906000526020600020905b815481529060010190602001808311610ddd57829003601f168201915b5050505050905090565b6000801b81565b610e1d610e166111e8565b838361170d565b5050565b610e32610e2c6111e8565b836112a9565b610e71576040517f08c379a0000000000000000000000000000000000000000000000000000000008152600401610e68906139e3565b60405180910390fd5b610e7d8484848461187a565b50505050565b6060610e8e826118d6565b9050919050565b6000610eb2600d60008481526020019081526020016000206119e9565b9050919050565b7f9f2df0fed2c77648de5860a4cc508cd0818c85b8b8a1ab4ceeef8d981c8956a6610ee3816115a5565b6000610eef600e6119fe565b9050610efb600e611a0c565b610f058482611a22565b610f0f8184611a40565b50505050565b7f9f2df0fed2c77648de5860a4cc508cd0818c85b8b8a1ab4ceeef8d981c8956a681565b610f4282610897565b610f4b816115a5565b610f5583836115ed565b505050565b7f65d7a28e3265b37a6474929f336521b332c1681b933f6cb9f3376673440d862a81565b6000600560008473ffffffffffffffffffffffffffffffffffffffff1673ffffffffffffffffffffffffffffffffffffffff16815260200190815260200160002060008373ffffffffffffffffffffffffffffffffffffffff1673ffffffffffffffffffffffffffffffffffffffff16815260200190815260200160002060009054906101000a900460ff16905092915050565b61101c8282610d07565b6110ef576001600c600084815260200190815260200160002060000160008373ffffffffffffffffffffffffffffffffffffffff1673ffffffffffffffffffffffffffffffffffffffff16815260200190815260200160002060006101000a81548160ff0219169083151502179055506110946111e8565b73ffffffffffffffffffffffffffffffffffffffff168173ffffffffffffffffffffffffffffffffffffffff16837f2f8788117e7eff1d82e926ec794901d17c78024a50270940304540a733656f0d60405160405180910390a45b5050565b600061111b836000018373ffffffffffffffffffffffffffffffffffffffff1660001b611ab4565b905092915050565b60007f5a05180f000000000000000000000000000000000000000000000000000000007bffffffffffffffffffffffffffffffffffffffffffffffffffffffff1916827bffffffffffffffffffffffffffffffffffffffffffffffffffffffff19161480611196575061119582611b24565b5b9050919050565b6111a681611b9e565b6111e5576040517f08c379a00000000000000000000000000000000000000000000000000000000081526004016111dc90613c34565b60405180910390fd5b50565b600033905090565b816004600083815260200190815260200160002060006101000a81548173ffffffffffffffffffffffffffffffffffffffff021916908373ffffffffffffffffffffffffffffffffffffffff160217905550808273ffffffffffffffffffffffffffffffffffffffff1661126383610b39565b73ffffffffffffffffffffffffffffffffffffffff167f8c5be1e5ebec7d5bd14f71427d1e84f3dd0314c0f7b2291e5b200ac8c7c3b92560405160405180910390a45050565b6000806112b583610b39565b90508073ffffffffffffffffffffffffffffffffffffffff168473ffffffffffffffffffffffffffffffffffffffff1614806112f757506112f68185610f7e565b5b8061133557508373ffffffffffffffffffffffffffffffffffffffff1661131d846106cc565b73ffffffffffffffffffffffffffffffffffffffff16145b91505092915050565b8273ffffffffffffffffffffffffffffffffffffffff1661135e82610b39565b73ffffffffffffffffffffffffffffffffffffffff16146113b4576040517f08c379a00000000000000000000000000000000000000000000000000000000081526004016113ab90613d58565b60405180910390fd5b600073ffffffffffffffffffffffffffffffffffffffff168273ffffffffffffffffffffffffffffffffffffffff161415611424576040517f08c379a000000000000000000000000000000000000000000000000000000000815260040161141b90613dea565b60405180910390fd5b61142f838383611c0a565b61143a6000826111f0565b6001600360008573ffffffffffffffffffffffffffffffffffffffff1673ffffffffffffffffffffffffffffffffffffffff168152602001908152602001600020600082825461148a9190613e39565b925050819055506001600360008473ffffffffffffffffffffffffffffffffffffffff1673ffffffffffffffffffffffffffffffffffffffff16815260200190815260200160002060008282546114e19190613e6d565b92505081905550816002600083815260200190815260200160002060006101000a81548173ffffffffffffffffffffffffffffffffffffffff021916908373ffffffffffffffffffffffffffffffffffffffff160217905550808273ffffffffffffffffffffffffffffffffffffffff168473ffffffffffffffffffffffffffffffffffffffff167fddf252ad1be2c89b69c2b068fc378daa952ba7f163c4a11628f55a4df523b3ef60405160405180910390a46115a0838383611c22565b505050565b6115b6816115b16111e8565b611c27565b50565b6115c38282611012565b6115e881600d60008581526020019081526020016000206110f390919063ffffffff16565b505050565b6115f78282611cc4565b61161c81600d6000858152602001908152602001600020611da690919063ffffffff16565b505050565b611629611dd6565b6000600b60006101000a81548160ff0219169083151502179055507f5db9ee0a495bf2e6ff9c91a7834c1ba4fdd244a5e8aa4e537bd38aeae4b073aa61166d6111e8565b60405161167a919061324d565b60405180910390a1565b61168d81611e1f565b50565b611698611e72565b6001600b60006101000a81548160ff0219169083151502179055507f62e78cea01bee320cd4e420270b5ea74000d11b0c9f74754ebdbfc544b05a2586116dc6111e8565b6040516116e9919061324d565b60405180910390a1565b60006117028360000183611ebc565b60001c905092915050565b8173ffffffffffffffffffffffffffffffffffffffff168373ffffffffffffffffffffffffffffffffffffffff16141561177c576040517f08c379a000000000000000000000000000000000000000000000000000000000815260040161177390613f0f565b60405180910390fd5b80600560008573ffffffffffffffffffffffffffffffffffffffff1673ffffffffffffffffffffffffffffffffffffffff16815260200190815260200160002060008473ffffffffffffffffffffffffffffffffffffffff1673ffffffffffffffffffffffffffffffffffffffff16815260200190815260200160002060006101000a81548160ff0219169083151502179055508173ffffffffffffffffffffffffffffffffffffffff168373ffffffffffffffffffffffffffffffffffffffff167f17307eab39ab6107e8899845ad3d59bd9653f200f220920489ca2b5937696c318360405161186d91906130d3565b60405180910390a3505050565b61188584848461133e565b61189184848484611ee7565b6118d0576040517f08c379a00000000000000000000000000000000000000000000000000000000081526004016118c790613fa1565b60405180910390fd5b50505050565b60606118e18261119d565b6000600a600084815260200190815260200160002080546119019061381b565b80601f016020809104026020016040519081016040528092919081815260200182805461192d9061381b565b801561197a5780601f1061194f5761010080835404028352916020019161197a565b820191906000526020600020905b81548152906001019060200180831161195d57829003601f168201915b50505050509050600061198b61207e565b90506000815114156119a15781925050506119e4565b6000825111156119d65780826040516020016119be929190613ffd565b604051602081830303815290604052925050506119e4565b6119df84612095565b925050505b919050565b60006119f7826000016120fd565b9050919050565b600081600001549050919050565b6001816000016000828254019250508190555050565b611a3c82826040518060200160405280600081525061210e565b5050565b611a4982611b9e565b611a88576040517f08c379a0000000000000000000000000000000000000000000000000000000008152600401611a7f90614093565b60405180910390fd5b80600a60008481526020019081526020016000209080519060200190611aaf929190612f3c565b505050565b6000611ac08383612169565b611b19578260000182908060018154018082558091505060019003906000526020600020016000909190919091505582600001805490508360010160008481526020019081526020016000208190555060019050611b1e565b600090505b92915050565b60007f7965db0b000000000000000000000000000000000000000000000000000000007bffffffffffffffffffffffffffffffffffffffffffffffffffffffff1916827bffffffffffffffffffffffffffffffffffffffffffffffffffffffff19161480611b975750611b968261218c565b5b9050919050565b60008073ffffffffffffffffffffffffffffffffffffffff166002600084815260200190815260200160002060009054906101000a900473ffffffffffffffffffffffffffffffffffffffff1673ffffffffffffffffffffffffffffffffffffffff1614159050919050565b611c12611e72565b611c1d838383612206565b505050565b505050565b611c318282610d07565b611cc057611c568173ffffffffffffffffffffffffffffffffffffffff16601461231a565b611c648360001c602061231a565b604051602001611c7592919061414b565b6040516020818303038152906040526040517f08c379a0000000000000000000000000000000000000000000000000000000008152600401611cb79190613187565b60405180910390fd5b5050565b611cce8282610d07565b15611da2576000600c600084815260200190815260200160002060000160008373ffffffffffffffffffffffffffffffffffffffff1673ffffffffffffffffffffffffffffffffffffffff16815260200190815260200160002060006101000a81548160ff021916908315150217905550611d476111e8565b73ffffffffffffffffffffffffffffffffffffffff168173ffffffffffffffffffffffffffffffffffffffff16837ff6391f5c32d9c69d2a47ea670b442974b53935d1edc7fd64eb21e047a839171b60405160405180910390a45b5050565b6000611dce836000018373ffffffffffffffffffffffffffffffffffffffff1660001b612556565b905092915050565b611dde610b22565b611e1d576040517f08c379a0000000000000000000000000000000000000000000000000000000008152600401611e14906141d1565b60405180910390fd5b565b611e288161266a565b6000600a60008381526020019081526020016000208054611e489061381b565b905014611e6f57600a60008281526020019081526020016000206000611e6e9190612fc2565b5b50565b611e7a610b22565b15611eba576040517f08c379a0000000000000000000000000000000000000000000000000000000008152600401611eb19061423d565b60405180910390fd5b565b6000826000018281548110611ed457611ed3613bb9565b5b9060005260206000200154905092915050565b6000611f088473ffffffffffffffffffffffffffffffffffffffff16612787565b15612071578373ffffffffffffffffffffffffffffffffffffffff1663150b7a02611f316111e8565b8786866040518563ffffffff1660e01b8152600401611f5394939291906142b2565b602060405180830381600087803b158015611f6d57600080fd5b505af1925050508015611f9e57506040513d601f19601f82011682018060405250810190611f9b9190614313565b60015b612021573d8060008114611fce576040519150601f19603f3d011682016040523d82523d6000602084013e611fd3565b606091505b50600081511415612019576040517f08c379a000000000000000000000000000000000000000000000000000000000815260040161201090613fa1565b60405180910390fd5b805181602001fd5b63150b7a0260e01b7bffffffffffffffffffffffffffffffffffffffffffffffffffffffff1916817bffffffffffffffffffffffffffffffffffffffffffffffffffffffff191614915050612076565b600190505b949350505050565b606060405180602001604052806000815250905090565b60606120a08261119d565b60006120aa61207e565b905060008151116120ca57604051806020016040528060008152506120f5565b806120d4846127aa565b6040516020016120e5929190613ffd565b6040516020818303038152906040525b915050919050565b600081600001805490509050919050565b612118838361290b565b6121256000848484611ee7565b612164576040517f08c379a000000000000000000000000000000000000000000000000000000000815260040161215b90613fa1565b60405180910390fd5b505050565b600080836001016000848152602001908152602001600020541415905092915050565b60007f780e9d63000000000000000000000000000000000000000000000000000000007bffffffffffffffffffffffffffffffffffffffffffffffffffffffff1916827bffffffffffffffffffffffffffffffffffffffffffffffffffffffff191614806121ff57506121fe82612ae5565b5b9050919050565b612211838383612bc7565b600073ffffffffffffffffffffffffffffffffffffffff168373ffffffffffffffffffffffffffffffffffffffff1614156122545761224f81612bcc565b612293565b8173ffffffffffffffffffffffffffffffffffffffff168373ffffffffffffffffffffffffffffffffffffffff1614612292576122918382612c15565b5b5b600073ffffffffffffffffffffffffffffffffffffffff168273ffffffffffffffffffffffffffffffffffffffff1614156122d6576122d181612d82565b612315565b8273ffffffffffffffffffffffffffffffffffffffff168273ffffffffffffffffffffffffffffffffffffffff1614612314576123138282612e53565b5b5b505050565b60606000600283600261232d9190614340565b6123379190613e6d565b67ffffffffffffffff8111156123505761234f613501565b5b6040519080825280601f01601f1916602001820160405280156123825781602001600182028036833780820191505090505b5090507f3000000000000000000000000000000000000000000000000000000000000000816000815181106123ba576123b9613bb9565b5b60200101907effffffffffffffffffffffffffffffffffffffffffffffffffffffffffffff1916908160001a9053507f78000000000000000000000000000000000000000000000000000000000000008160018151811061241e5761241d613bb9565b5b60200101907effffffffffffffffffffffffffffffffffffffffffffffffffffffffffffff1916908160001a9053506000600184600261245e9190614340565b6124689190613e6d565b90505b6001811115612508577f3031323334353637383961626364656600000000000000000000000000000000600f8616601081106124aa576124a9613bb9565b5b1a60f81b8282815181106124c1576124c0613bb9565b5b60200101907effffffffffffffffffffffffffffffffffffffffffffffffffffffffffffff1916908160001a905350600485901c9450806125019061439a565b905061246b565b506000841461254c576040517f08c379a000000000000000000000000000000000000000000000000000000000815260040161254390614410565b60405180910390fd5b8091505092915050565b6000808360010160008481526020019081526020016000205490506000811461265e5760006001826125889190613e39565b90506000600186600001805490506125a09190613e39565b905081811461260f5760008660000182815481106125c1576125c0613bb9565b5b90600052602060002001549050808760000184815481106125e5576125e4613bb9565b5b90600052602060002001819055508387600101600083815260200190815260200160002081905550505b8560000180548061262357612622614430565b5b600190038181906000526020600020016000905590558560010160008681526020019081526020016000206000905560019350505050612664565b60009150505b92915050565b600061267582610b39565b905061268381600084611c0a565b61268e6000836111f0565b6001600360008373ffffffffffffffffffffffffffffffffffffffff1673ffffffffffffffffffffffffffffffffffffffff16815260200190815260200160002060008282546126de9190613e39565b925050819055506002600083815260200190815260200160002060006101000a81549073ffffffffffffffffffffffffffffffffffffffff021916905581600073ffffffffffffffffffffffffffffffffffffffff168273ffffffffffffffffffffffffffffffffffffffff167fddf252ad1be2c89b69c2b068fc378daa952ba7f163c4a11628f55a4df523b3ef60405160405180910390a461278381600084611c22565b5050565b6000808273ffffffffffffffffffffffffffffffffffffffff163b119050919050565b606060008214156127f2576040518060400160405280600181526020017f30000000000000000000000000000000000000000000000000000000000000008152509050612906565b600082905060005b6000821461282457808061280d9061445f565b915050600a8261281d91906144d7565b91506127fa565b60008167ffffffffffffffff8111156128405761283f613501565b5b6040519080825280601f01601f1916602001820160405280156128725781602001600182028036833780820191505090505b5090505b600085146128ff5760018261288b9190613e39565b9150600a8561289a9190614508565b60306128a69190613e6d565b60f81b8183815181106128bc576128bb613bb9565b5b60200101907effffffffffffffffffffffffffffffffffffffffffffffffffffffffffffff1916908160001a905350600a856128f891906144d7565b9450612876565b8093505050505b919050565b600073ffffffffffffffffffffffffffffffffffffffff168273ffffffffffffffffffffffffffffffffffffffff16141561297b576040517f08c379a000000000000000000000000000000000000000000000000000000000815260040161297290614585565b60405180910390fd5b61298481611b9e565b156129c4576040517f08c379a00000000000000000000000000000000000000000000000000000000081526004016129bb906145f1565b60405180910390fd5b6129d060008383611c0a565b6001600360008473ffffffffffffffffffffffffffffffffffffffff1673ffffffffffffffffffffffffffffffffffffffff1681526020019081526020016000206000828254612a209190613e6d565b92505081905550816002600083815260200190815260200160002060006101000a81548173ffffffffffffffffffffffffffffffffffffffff021916908373ffffffffffffffffffffffffffffffffffffffff160217905550808273ffffffffffffffffffffffffffffffffffffffff16600073ffffffffffffffffffffffffffffffffffffffff167fddf252ad1be2c89b69c2b068fc378daa952ba7f163c4a11628f55a4df523b3ef60405160405180910390a4612ae160008383611c22565b5050565b60007f80ac58cd000000000000000000000000000000000000000000000000000000007bffffffffffffffffffffffffffffffffffffffffffffffffffffffff1916827bffffffffffffffffffffffffffffffffffffffffffffffffffffffff19161480612bb057507f5b5e139f000000000000000000000000000000000000000000000000000000007bffffffffffffffffffffffffffffffffffffffffffffffffffffffff1916827bffffffffffffffffffffffffffffffffffffffffffffffffffffffff1916145b80612bc05750612bbf82612ed2565b5b9050919050565b505050565b6008805490506009600083815260200190815260200160002081905550600881908060018154018082558091505060019003906000526020600020016000909190919091505550565b60006001612c2284610beb565b612c2c9190613e39565b9050600060076000848152602001908152602001600020549050818114612d11576000600660008673ffffffffffffffffffffffffffffffffffffffff1673ffffffffffffffffffffffffffffffffffffffff168152602001908152602001600020600084815260200190815260200160002054905080600660008773ffffffffffffffffffffffffffffffffffffffff1673ffffffffffffffffffffffffffffffffffffffff168152602001908152602001600020600084815260200190815260200160002081905550816007600083815260200190815260200160002081905550505b6007600084815260200190815260200160002060009055600660008573ffffffffffffffffffffffffffffffffffffffff1673ffffffffffffffffffffffffffffffffffffffff16815260200190815260200160002060008381526020019081526020016000206000905550505050565b60006001600880549050612d969190613e39565b9050600060096000848152602001908152602001600020549050600060088381548110612dc657612dc5613bb9565b5b906000526020600020015490508060088381548110612de857612de7613bb9565b5b906000526020600020018190555081600960008381526020019081526020016000208190555060096000858152602001908152602001600020600090556008805480612e3757612e36614430565b5b6001900381819060005260206000200160009055905550505050565b6000612e5e83610beb565b905081600660008573ffffffffffffffffffffffffffffffffffffffff1673ffffffffffffffffffffffffffffffffffffffff168152602001908152602001600020600083815260200190815260200160002081905550806007600084815260200190815260200160002081905550505050565b60007f01ffc9a7000000000000000000000000000000000000000000000000000000007bffffffffffffffffffffffffffffffffffffffffffffffffffffffff1916827bffffffffffffffffffffffffffffffffffffffffffffffffffffffff1916149050919050565b828054612f489061381b565b90600052602060002090601f016020900481019282612f6a5760008555612fb1565b82601f10612f8357805160ff1916838001178555612fb1565b82800160010185558215612fb1579182015b82811115612fb0578251825591602001919060010190612f95565b5b509050612fbe9190613002565b5090565b508054612fce9061381b565b6000825580601f10612fe05750612fff565b601f016020900490600052602060002090810190612ffe9190613002565b5b50565b5b8082111561301b576000816000905550600101613003565b5090565b6000604051905090565b600080fd5b600080fd5b60007fffffffff0000000000000000000000000000000000000000000000000000000082169050919050565b61306881613033565b811461307357600080fd5b50565b6000813590506130858161305f565b92915050565b6000602082840312156130a1576130a0613029565b5b60006130af84828501613076565b91505092915050565b60008115159050919050565b6130cd816130b8565b82525050565b60006020820190506130e860008301846130c4565b92915050565b600081519050919050565b600082825260208201905092915050565b60005b8381101561312857808201518184015260208101905061310d565b83811115613137576000848401525b50505050565b6000601f19601f8301169050919050565b6000613159826130ee565b61316381856130f9565b935061317381856020860161310a565b61317c8161313d565b840191505092915050565b600060208201905081810360008301526131a1818461314e565b905092915050565b6000819050919050565b6131bc816131a9565b81146131c757600080fd5b50565b6000813590506131d9816131b3565b92915050565b6000602082840312156131f5576131f4613029565b5b6000613203848285016131ca565b91505092915050565b600073ffffffffffffffffffffffffffffffffffffffff82169050919050565b60006132378261320c565b9050919050565b6132478161322c565b82525050565b6000602082019050613262600083018461323e565b92915050565b6132718161322c565b811461327c57600080fd5b50565b60008135905061328e81613268565b92915050565b600080604083850312156132ab576132aa613029565b5b60006132b98582860161327f565b92505060206132ca858286016131ca565b9150509250929050565b6132dd816131a9565b82525050565b60006020820190506132f860008301846132d4565b92915050565b60008060006060848603121561331757613316613029565b5b60006133258682870161327f565b93505060206133368682870161327f565b9250506040613347868287016131ca565b9150509250925092565b6000819050919050565b61336481613351565b811461336f57600080fd5b50565b6000813590506133818161335b565b92915050565b60006020828403121561339d5761339c613029565b5b60006133ab84828501613372565b91505092915050565b6133bd81613351565b82525050565b60006020820190506133d860008301846133b4565b92915050565b600080604083850312156133f5576133f4613029565b5b600061340385828601613372565b92505060206134148582860161327f565b9150509250929050565b60006020828403121561343457613433613029565b5b60006134428482850161327f565b91505092915050565b6000806040838503121561346257613461613029565b5b600061347085828601613372565b9250506020613481858286016131ca565b9150509250929050565b613494816130b8565b811461349f57600080fd5b50565b6000813590506134b18161348b565b92915050565b600080604083850312156134ce576134cd613029565b5b60006134dc8582860161327f565b92505060206134ed858286016134a2565b9150509250929050565b600080fd5b600080fd5b7f4e487b7100000000000000000000000000000000000000000000000000000000600052604160045260246000fd5b6135398261313d565b810181811067ffffffffffffffff8211171561355857613557613501565b5b80604052505050565b600061356b61301f565b90506135778282613530565b919050565b600067ffffffffffffffff82111561359757613596613501565b5b6135a08261313d565b9050602081019050919050565b82818337600083830152505050565b60006135cf6135ca8461357c565b613561565b9050828152602081018484840111156135eb576135ea6134fc565b5b6135f68482856135ad565b509392505050565b600082601f830112613613576136126134f7565b5b81356136238482602086016135bc565b91505092915050565b6000806000806080858703121561364657613645613029565b5b60006136548782880161327f565b94505060206136658782880161327f565b9350506040613676878288016131ca565b925050606085013567ffffffffffffffff8111156136975761369661302e565b5b6136a3878288016135fe565b91505092959194509250565b600067ffffffffffffffff8211156136ca576136c9613501565b5b6136d38261313d565b9050602081019050919050565b60006136f36136ee846136af565b613561565b90508281526020810184848401111561370f5761370e6134fc565b5b61371a8482856135ad565b509392505050565b600082601f830112613737576137366134f7565b5b81356137478482602086016136e0565b91505092915050565b6000806040838503121561376757613766613029565b5b60006137758582860161327f565b925050602083013567ffffffffffffffff8111156137965761379561302e565b5b6137a285828601613722565b9150509250929050565b600080604083850312156137c3576137c2613029565b5b60006137d18582860161327f565b92505060206137e28582860161327f565b9150509250929050565b7f4e487b7100000000000000000000000000000000000000000000000000000000600052602260045260246000fd5b6000600282049050600182168061383357607f821691505b60208210811415613847576138466137ec565b5b50919050565b7f4552433732313a20617070726f76616c20746f2063757272656e74206f776e6560008201527f7200000000000000000000000000000000000000000000000000000000000000602082015250565b60006138a96021836130f9565b91506138b48261384d565b604082019050919050565b600060208201905081810360008301526138d88161389c565b9050919050565b7f4552433732313a20617070726f76652063616c6c6572206973206e6f7420746f60008201527f6b656e206f776e6572206e6f7220617070726f76656420666f7220616c6c0000602082015250565b600061393b603e836130f9565b9150613946826138df565b604082019050919050565b6000602082019050818103600083015261396a8161392e565b9050919050565b7f4552433732313a2063616c6c6572206973206e6f7420746f6b656e206f776e6560008201527f72206e6f7220617070726f766564000000000000000000000000000000000000602082015250565b60006139cd602e836130f9565b91506139d882613971565b604082019050919050565b600060208201905081810360008301526139fc816139c0565b9050919050565b7f455243373231456e756d657261626c653a206f776e657220696e646578206f7560008201527f74206f6620626f756e6473000000000000000000000000000000000000000000602082015250565b6000613a5f602b836130f9565b9150613a6a82613a03565b604082019050919050565b60006020820190508181036000830152613a8e81613a52565b9050919050565b7f416363657373436f6e74726f6c3a2063616e206f6e6c792072656e6f756e636560008201527f20726f6c657320666f722073656c660000000000000000000000000000000000602082015250565b6000613af1602f836130f9565b9150613afc82613a95565b604082019050919050565b60006020820190508181036000830152613b2081613ae4565b9050919050565b7f455243373231456e756d657261626c653a20676c6f62616c20696e646578206f60008201527f7574206f6620626f756e64730000000000000000000000000000000000000000602082015250565b6000613b83602c836130f9565b9150613b8e82613b27565b604082019050919050565b60006020820190508181036000830152613bb281613b76565b9050919050565b7f4e487b7100000000000000000000000000000000000000000000000000000000600052603260045260246000fd5b7f4552433732313a20696e76616c696420746f6b656e2049440000000000000000600082015250565b6000613c1e6018836130f9565b9150613c2982613be8565b602082019050919050565b60006020820190508181036000830152613c4d81613c11565b9050919050565b7f4552433732313a2061646472657373207a65726f206973206e6f74206120766160008201527f6c6964206f776e65720000000000000000000000000000000000000000000000602082015250565b6000613cb06029836130f9565b9150613cbb82613c54565b604082019050919050565b60006020820190508181036000830152613cdf81613ca3565b9050919050565b7f4552433732313a207472616e736665722066726f6d20696e636f72726563742060008201527f6f776e6572000000000000000000000000000000000000000000000000000000602082015250565b6000613d426025836130f9565b9150613d4d82613ce6565b604082019050919050565b60006020820190508181036000830152613d7181613d35565b9050919050565b7f4552433732313a207472616e7366657220746f20746865207a65726f2061646460008201527f7265737300000000000000000000000000000000000000000000000000000000602082015250565b6000613dd46024836130f9565b9150613ddf82613d78565b604082019050919050565b60006020820190508181036000830152613e0381613dc7565b9050919050565b7f4e487b7100000000000000000000000000000000000000000000000000000000600052601160045260246000fd5b6000613e44826131a9565b9150613e4f836131a9565b925082821015613e6257613e61613e0a565b5b828203905092915050565b6000613e78826131a9565b9150613e83836131a9565b9250827fffffffffffffffffffffffffffffffffffffffffffffffffffffffffffffffff03821115613eb857613eb7613e0a565b5b828201905092915050565b7f4552433732313a20617070726f766520746f2063616c6c657200000000000000600082015250565b6000613ef96019836130f9565b9150613f0482613ec3565b602082019050919050565b60006020820190508181036000830152613f2881613eec565b9050919050565b7f4552433732313a207472616e7366657220746f206e6f6e20455243373231526560008201527f63656976657220696d706c656d656e7465720000000000000000000000000000602082015250565b6000613f8b6032836130f9565b9150613f9682613f2f565b604082019050919050565b60006020820190508181036000830152613fba81613f7e565b9050919050565b600081905092915050565b6000613fd7826130ee565b613fe18185613fc1565b9350613ff181856020860161310a565b80840191505092915050565b60006140098285613fcc565b91506140158284613fcc565b91508190509392505050565b7f45524337323155524953746f726167653a2055524920736574206f66206e6f6e60008201527f6578697374656e7420746f6b656e000000000000000000000000000000000000602082015250565b600061407d602e836130f9565b915061408882614021565b604082019050919050565b600060208201905081810360008301526140ac81614070565b9050919050565b7f416363657373436f6e74726f6c3a206163636f756e7420000000000000000000600082015250565b60006140e9601783613fc1565b91506140f4826140b3565b601782019050919050565b7f206973206d697373696e6720726f6c6520000000000000000000000000000000600082015250565b6000614135601183613fc1565b9150614140826140ff565b601182019050919050565b6000614156826140dc565b91506141628285613fcc565b915061416d82614128565b91506141798284613fcc565b91508190509392505050565b7f5061757361626c653a206e6f7420706175736564000000000000000000000000600082015250565b60006141bb6014836130f9565b91506141c682614185565b602082019050919050565b600060208201905081810360008301526141ea816141ae565b9050919050565b7f5061757361626c653a2070617573656400000000000000000000000000000000600082015250565b60006142276010836130f9565b9150614232826141f1565b602082019050919050565b600060208201905081810360008301526142568161421a565b9050919050565b600081519050919050565b600082825260208201905092915050565b60006142848261425d565b61428e8185614268565b935061429e81856020860161310a565b6142a78161313d565b840191505092915050565b60006080820190506142c7600083018761323e565b6142d4602083018661323e565b6142e160408301856132d4565b81810360608301526142f38184614279565b905095945050505050565b60008151905061430d8161305f565b92915050565b60006020828403121561432957614328613029565b5b6000614337848285016142fe565b91505092915050565b600061434b826131a9565b9150614356836131a9565b9250817fffffffffffffffffffffffffffffffffffffffffffffffffffffffffffffffff048311821515161561438f5761438e613e0a565b5b828202905092915050565b60006143a5826131a9565b915060008214156143b9576143b8613e0a565b5b600182039050919050565b7f537472696e67733a20686578206c656e67746820696e73756666696369656e74600082015250565b60006143fa6020836130f9565b9150614405826143c4565b602082019050919050565b60006020820190508181036000830152614429816143ed565b9050919050565b7f4e487b7100000000000000000000000000000000000000000000000000000000600052603160045260246000fd5b600061446a826131a9565b91507fffffffffffffffffffffffffffffffffffffffffffffffffffffffffffffffff82141561449d5761449c613e0a565b5b600182019050919050565b7f4e487b7100000000000000000000000000000000000000000000000000000000600052601260045260246000fd5b60006144e2826131a9565b91506144ed836131a9565b9250826144fd576144fc6144a8565b5b828204905092915050565b6000614513826131a9565b915061451e836131a9565b92508261452e5761452d6144a8565b5b828206905092915050565b7f4552433732313a206d696e7420746f20746865207a65726f2061646472657373600082015250565b600061456f6020836130f9565b915061457a82614539565b602082019050919050565b6000602082019050818103600083015261459e81614562565b9050919050565b7f4552433732313a20746f6b656e20616c7265616479206d696e74656400000000600082015250565b60006145db601c836130f9565b91506145e6826145a5565b602082019050919050565b6000602082019050818103600083015261460a816145ce565b905091905056fea2646970667358221220ffc48193453ad9629fddb63c56eaafc9185fa8914cee0563edfb342b4668b51564736f6c63430008090033",
  "linkReferences": {},
  "deployedLinkReferences": {}
}