{
  "_format": "hh-sol-artifact-1",
  "contractName": "NFTMinter",
  "sourceName": "contracts/NFTMinter.sol",
  "abi": [
    {
      "inputs": [
        {
          "internalType": "address",
          "name": "_admin2",
          "type": "address"
        },
        {
          "internalType": "address",
          "name": "_admin3",
          "type": "address"
        },
        {
          "internalType": "address",
          "name": "_admin4",
          "type": "address"
        }
      ],
      "stateMutability": "nonpayable",
      "type": "constructor"
    },
    {
      "anonymous": false,
      "inputs": [
        {
          "indexed": true,
          "internalType": "address",
          "name": "owner",
          "type": "address"
        },
        {
          "indexed": true,
          "internalType": "address",
          "name": "approved",
          "type": "address"
        },
        {
          "indexed": true,
          "internalType": "uint256",
          "name": "tokenId",
          "type": "uint256"
        }
      ],
      "name": "Approval",
      "type": "event"
    },
    {
      "anonymous": false,
      "inputs": [
        {
          "indexed": true,
          "internalType": "address",
          "name": "owner",
          "type": "address"
        },
        {
          "indexed": true,
          "internalType": "address",
          "name": "operator",
          "type": "address"
        },
        {
          "indexed": false,
          "internalType": "bool",
          "name": "approved",
          "type": "bool"
        }
      ],
      "name": "ApprovalForAll",
      "type": "event"
    },
    {
      "anonymous": false,
      "inputs": [
        {
          "indexed": false,
          "internalType": "address",
          "name": "account",
          "type": "address"
        }
      ],
      "name": "Paused",
      "type": "event"
    },
    {
      "anonymous": false,
      "inputs": [
        {
          "indexed": true,
          "internalType": "bytes32",
          "name": "role",
          "type": "bytes32"
        },
        {
          "indexed": true,
          "internalType": "bytes32",
          "name": "previousAdminRole",
          "type": "bytes32"
        },
        {
          "indexed": true,
          "internalType": "bytes32",
          "name": "newAdminRole",
          "type": "bytes32"
        }
      ],
      "name": "RoleAdminChanged",
      "type": "event"
    },
    {
      "anonymous": false,
      "inputs": [
        {
          "indexed": true,
          "internalType": "bytes32",
          "name": "role",
          "type": "bytes32"
        },
        {
          "indexed": true,
          "internalType": "address",
          "name": "account",
          "type": "address"
        },
        {
          "indexed": true,
          "internalType": "address",
          "name": "sender",
          "type": "address"
        }
      ],
      "name": "RoleGranted",
      "type": "event"
    },
    {
      "anonymous": false,
      "inputs": [
        {
          "indexed": true,
          "internalType": "bytes32",
          "name": "role",
          "type": "bytes32"
        },
        {
          "indexed": true,
          "internalType": "address",
          "name": "account",
          "type": "address"
        },
        {
          "indexed": true,
          "internalType": "address",
          "name": "sender",
          "type": "address"
        }
      ],
      "name": "RoleRevoked",
      "type": "event"
    },
    {
      "anonymous": false,
      "inputs": [
        {
          "indexed": true,
          "internalType": "address",
          "name": "from",
          "type": "address"
        },
        {
          "indexed": true,
          "internalType": "address",
          "name": "to",
          "type": "address"
        },
        {
          "indexed": true,
          "internalType": "uint256",
          "name": "tokenId",
          "type": "uint256"
        }
      ],
      "name": "Transfer",
      "type": "event"
    },
    {
      "anonymous": false,
      "inputs": [
        {
          "indexed": false,
          "internalType": "address",
          "name": "account",
          "type": "address"
        }
      ],
      "name": "Unpaused",
      "type": "event"
    },
    {
      "inputs": [],
      "name": "DEFAULT_ADMIN_ROLE",
      "outputs": [
        {
          "internalType": "bytes32",
          "name": "",
          "type": "bytes32"
        }
      ],
      "stateMutability": "view",
      "type": "function"
    },
    {
      "inputs": [],
      "name": "MINTER_ROLE",
      "outputs": [
        {
          "internalType": "bytes32",
          "name": "",
          "type": "bytes32"
        }
      ],
      "stateMutability": "view",
      "type": "function"
    },
    {
      "inputs": [],
      "name": "PAUSER_ROLE",
      "outputs": [
        {
          "internalType": "bytes32",
          "name": "",
          "type": "bytes32"
        }
      ],
      "stateMutability": "view",
      "type": "function"
    },
    {
      "inputs": [
        {
          "internalType": "address",
          "name": "to",
          "type": "address"
        },
        {
          "internalType": "uint256",
          "name": "tokenId",
          "type": "uint256"
        }
      ],
      "name": "approve",
      "outputs": [],
      "stateMutability": "nonpayable",
      "type": "function"
    },
    {
      "inputs": [
        {
          "internalType": "address",
          "name": "owner",
          "type": "address"
        }
      ],
      "name": "balanceOf",
      "outputs": [
        {
          "internalType": "uint256",
          "name": "",
          "type": "uint256"
        }
      ],
      "stateMutability": "view",
      "type": "function"
    },
    {
      "inputs": [
        {
          "internalType": "uint256",
          "name": "tokenId",
          "type": "uint256"
        }
      ],
      "name": "burn",
      "outputs": [],
      "stateMutability": "nonpayable",
      "type": "function"
    },
    {
      "inputs": [
        {
          "internalType": "uint256",
          "name": "tokenId",
          "type": "uint256"
        }
      ],
      "name": "getApproved",
      "outputs": [
        {
          "internalType": "address",
          "name": "",
          "type": "address"
        }
      ],
      "stateMutability": "view",
      "type": "function"
    },
    {
      "inputs": [
        {
          "internalType": "bytes32",
          "name": "role",
          "type": "bytes32"
        }
      ],
      "name": "getRoleAdmin",
      "outputs": [
        {
          "internalType": "bytes32",
          "name": "",
          "type": "bytes32"
        }
      ],
      "stateMutability": "view",
      "type": "function"
    },
    {
      "inputs": [
        {
          "internalType": "bytes32",
          "name": "role",
          "type": "bytes32"
        },
        {
          "internalType": "uint256",
          "name": "index",
          "type": "uint256"
        }
      ],
      "name": "getRoleMember",
      "outputs": [
        {
          "internalType": "address",
          "name": "",
          "type": "address"
        }
      ],
      "stateMutability": "view",
      "type": "function"
    },
    {
      "inputs": [
        {
          "internalType": "bytes32",
          "name": "role",
          "type": "bytes32"
        }
      ],
      "name": "getRoleMemberCount",
      "outputs": [
        {
          "internalType": "uint256",
          "name": "",
          "type": "uint256"
        }
      ],
      "stateMutability": "view",
      "type": "function"
    },
    {
      "inputs": [
        {
          "internalType": "bytes32",
          "name": "role",
          "type": "bytes32"
        },
        {
          "internalType": "address",
          "name": "account",
          "type": "address"
        }
      ],
      "name": "grantRole",
      "outputs": [],
      "stateMutability": "nonpayable",
      "type": "function"
    },
    {
      "inputs": [
        {
          "internalType": "bytes32",
          "name": "role",
          "type": "bytes32"
        },
        {
          "internalType": "address",
          "name": "account",
          "type": "address"
        }
      ],
      "name": "hasRole",
      "outputs": [
        {
          "internalType": "bool",
          "name": "",
          "type": "bool"
        }
      ],
      "stateMutability": "view",
      "type": "function"
    },
    {
      "inputs": [
        {
          "internalType": "address",
          "name": "owner",
          "type": "address"
        },
        {
          "internalType": "address",
          "name": "operator",
          "type": "address"
        }
      ],
      "name": "isApprovedForAll",
      "outputs": [
        {
          "internalType": "bool",
          "name": "",
          "type": "bool"
        }
      ],
      "stateMutability": "view",
      "type": "function"
    },
    {
      "inputs": [],
      "name": "name",
      "outputs": [
        {
          "internalType": "string",
          "name": "",
          "type": "string"
        }
      ],
      "stateMutability": "view",
      "type": "function"
    },
    {
      "inputs": [
        {
          "internalType": "uint256",
          "name": "tokenId",
          "type": "uint256"
        }
      ],
      "name": "ownerOf",
      "outputs": [
        {
          "internalType": "address",
          "name": "",
          "type": "address"
        }
      ],
      "stateMutability": "view",
      "type": "function"
    },
    {
      "inputs": [],
      "name": "pause",
      "outputs": [],
      "stateMutability": "nonpayable",
      "type": "function"
    },
    {
      "inputs": [],
      "name": "paused",
      "outputs": [
        {
          "internalType": "bool",
          "name": "",
          "type": "bool"
        }
      ],
      "stateMutability": "view",
      "type": "function"
    },
    {
      "inputs": [
        {
          "internalType": "bytes32",
          "name": "role",
          "type": "bytes32"
        },
        {
          "internalType": "address",
          "name": "account",
          "type": "address"
        }
      ],
      "name": "renounceRole",
      "outputs": [],
      "stateMutability": "nonpayable",
      "type": "function"
    },
    {
      "inputs": [
        {
          "internalType": "bytes32",
          "name": "role",
          "type": "bytes32"
        },
        {
          "internalType": "address",
          "name": "account",
          "type": "address"
        }
      ],
      "name": "revokeRole",
      "outputs": [],
      "stateMutability": "nonpayable",
      "type": "function"
    },
    {
      "inputs": [
        {
          "internalType": "address",
          "name": "to",
          "type": "address"
        },
        {
          "internalType": "string",
          "name": "uri",
          "type": "string"
        }
      ],
      "name": "safeMint",
      "outputs": [],
      "stateMutability": "nonpayable",
      "type": "function"
    },
    {
      "inputs": [
        {
          "internalType": "address",
          "name": "from",
          "type": "address"
        },
        {
          "internalType": "address",
          "name": "to",
          "type": "address"
        },
        {
          "internalType": "uint256",
          "name": "tokenId",
          "type": "uint256"
        }
      ],
      "name": "safeTransferFrom",
      "outputs": [],
      "stateMutability": "nonpayable",
      "type": "function"
    },
    {
      "inputs": [
        {
          "internalType": "address",
          "name": "from",
          "type": "address"
        },
        {
          "internalType": "address",
          "name": "to",
          "type": "address"
        },
        {
          "internalType": "uint256",
          "name": "tokenId",
          "type": "uint256"
        },
        {
          "internalType": "bytes",
          "name": "data",
          "type": "bytes"
        }
      ],
      "name": "safeTransferFrom",
      "outputs": [],
      "stateMutability": "nonpayable",
      "type": "function"
    },
    {
      "inputs": [
        {
          "internalType": "address",
          "name": "operator",
          "type": "address"
        },
        {
          "internalType": "bool",
          "name": "approved",
          "type": "bool"
        }
      ],
      "name": "setApprovalForAll",
      "outputs": [],
      "stateMutability": "nonpayable",
      "type": "function"
    },
    {
      "inputs": [
        {
          "internalType": "bytes4",
          "name": "interfaceId",
          "type": "bytes4"
        }
      ],
      "name": "supportsInterface",
      "outputs": [
        {
          "internalType": "bool",
          "name": "",
          "type": "bool"
        }
      ],
      "stateMutability": "view",
      "type": "function"
    },
    {
      "inputs": [],
      "name": "symbol",
      "outputs": [
        {
          "internalType": "string",
          "name": "",
          "type": "string"
        }
      ],
      "stateMutability": "view",
      "type": "function"
    },
    {
      "inputs": [
        {
          "internalType": "uint256",
          "name": "index",
          "type": "uint256"
        }
      ],
      "name": "tokenByIndex",
      "outputs": [
        {
          "internalType": "uint256",
          "name": "",
          "type": "uint256"
        }
      ],
      "stateMutability": "view",
      "type": "function"
    },
    {
      "inputs": [
        {
          "internalType": "address",
          "name": "owner",
          "type": "address"
        },
        {
          "internalType": "uint256",
          "name": "index",
          "type": "uint256"
        }
      ],
      "name": "tokenOfOwnerByIndex",
      "outputs": [
        {
          "internalType": "uint256",
          "name": "",
          "type": "uint256"
        }
      ],
      "stateMutability": "view",
      "type": "function"
    },
    {
      "inputs": [
        {
          "internalType": "uint256",
          "name": "tokenId",
          "type": "uint256"
        }
      ],
      "name": "tokenURI",
      "outputs": [
        {
          "internalType": "string",
          "name": "",
          "type": "string"
        }
      ],
      "stateMutability": "view",
      "type": "function"
    },
    {
      "inputs": [],
      "name": "totalSupply",
      "outputs": [
        {
          "internalType": "uint256",
          "name": "",
          "type": "uint256"
        }
      ],
      "stateMutability": "view",
      "type": "function"
    },
    {
      "inputs": [
        {
          "internalType": "address",
          "name": "from",
          "type": "address"
        },
        {
          "internalType": "address",
          "name": "to",
          "type": "address"
        },
        {
          "internalType": "uint256",
          "name": "tokenId",
          "type": "uint256"
        }
      ],
      "name": "transferFrom",
      "outputs": [],
      "stateMutability": "nonpayable",
      "type": "function"
    },
    {
      "inputs": [],
      "name": "unpause",
      "outputs": [],
      "stateMutability": "nonpayable",
      "type": "function"
    }
  ],
  "bytecode": "0x60806040523480156200001157600080fd5b5060405162002ae138038062002ae18339810160408190526200003491620003be565b604080518082018252600981526827232a26b4b73a32b960b91b6020808301918252835180850190945260048452634e46544d60e01b9084015281519192916200008191600091620002fb565b50805162000097906001906020840190620002fb565b5050600b805460ff1916905550620000b160003362000192565b620000cc60008051602062002ac18339815191523362000192565b620000e760008051602062002aa18339815191523362000192565b6200010260008051602062002ac18339815191528462000192565b6200011d60008051602062002aa18339815191528462000192565b6200013860008051602062002ac18339815191528362000192565b6200015360008051602062002aa18339815191528362000192565b6200016e60008051602062002ac18339815191528262000192565b6200018960008051602062002aa18339815191528262000192565b50505062000445565b6200019e8282620001a2565b5050565b620001b98282620001e560201b62000b491760201c565b6000828152600d60209081526040909120620001e091839062000bcf62000289821b17901c565b505050565b6000828152600c602090815260408083206001600160a01b038516845290915290205460ff166200019e576000828152600c602090815260408083206001600160a01b03851684529091529020805460ff19166001179055620002453390565b6001600160a01b0316816001600160a01b0316837f2f8788117e7eff1d82e926ec794901d17c78024a50270940304540a733656f0d60405160405180910390a45050565b6000620002a0836001600160a01b038416620002a9565b90505b92915050565b6000818152600183016020526040812054620002f257508154600181810184556000848152602080822090930184905584548482528286019093526040902091909155620002a3565b506000620002a3565b828054620003099062000408565b90600052602060002090601f0160209004810192826200032d576000855562000378565b82601f106200034857805160ff191683800117855562000378565b8280016001018555821562000378579182015b82811115620003785782518255916020019190600101906200035b565b50620003869291506200038a565b5090565b5b808211156200038657600081556001016200038b565b80516001600160a01b0381168114620003b957600080fd5b919050565b600080600060608486031215620003d457600080fd5b620003df84620003a1565b9250620003ef60208501620003a1565b9150620003ff60408501620003a1565b90509250925092565b600181811c908216806200041d57607f821691505b602082108114156200043f57634e487b7160e01b600052602260045260246000fd5b50919050565b61264c80620004556000396000f3fe608060405234801561001057600080fd5b50600436106101e55760003560e01c80636352211e1161010f578063b88d4fde116100a2578063d539139311610071578063d5391393146103f7578063d547741f1461041e578063e63ab1e914610431578063e985e9c51461045857600080fd5b8063b88d4fde146103ab578063c87b56dd146103be578063ca15c873146103d1578063d204c45e146103e457600080fd5b806391d14854116100de57806391d148541461037557806395d89b4114610388578063a217fddf14610390578063a22cb4651461039857600080fd5b80636352211e1461033457806370a08231146103475780638456cb591461035a5780639010d07c1461036257600080fd5b80632f2ff15d1161018757806342842e0e1161015657806342842e0e146102f057806342966c68146103035780634f6ccce7146103165780635c975abb1461032957600080fd5b80632f2ff15d146102af5780632f745c59146102c257806336568abe146102d55780633f4ba83a146102e857600080fd5b8063095ea7b3116101c3578063095ea7b31461025257806318160ddd1461026757806323b872dd14610279578063248a9ca31461028c57600080fd5b806301ffc9a7146101ea57806306fdde0314610212578063081812fc14610227575b600080fd5b6101fd6101f8366004611fe1565b610494565b60405190151581526020015b60405180910390f35b61021a6104a5565b6040516102099190612056565b61023a610235366004612069565b610537565b6040516001600160a01b039091168152602001610209565b61026561026036600461209e565b61055e565b005b6008545b604051908152602001610209565b6102656102873660046120c8565b610679565b61026b61029a366004612069565b6000908152600c602052604090206001015490565b6102656102bd366004612104565b6106ab565b61026b6102d036600461209e565b6106d0565b6102656102e3366004612104565b610766565b6102656107e4565b6102656102fe3660046120c8565b610819565b610265610311366004612069565b610834565b61026b610324366004612069565b610862565b600b5460ff166101fd565b61023a610342366004612069565b6108f5565b61026b610355366004612130565b610955565b6102656109db565b61023a61037036600461214b565b610a0d565b6101fd610383366004612104565b610a2c565b61021a610a57565b61026b600081565b6102656103a636600461216d565b610a66565b6102656103b9366004612235565b610a71565b61021a6103cc366004612069565b610aa9565b61026b6103df366004612069565b610ab4565b6102656103f23660046122b1565b610acb565b61026b7f9f2df0fed2c77648de5860a4cc508cd0818c85b8b8a1ab4ceeef8d981c8956a681565b61026561042c366004612104565b610b24565b61026b7f65d7a28e3265b37a6474929f336521b332c1681b933f6cb9f3376673440d862a81565b6101fd610466366004612313565b6001600160a01b03918216600090815260056020908152604080832093909416825291909152205460ff1690565b600061049f82610be4565b92915050565b6060600080546104b49061233d565b80601f01602080910402602001604051908101604052809291908181526020018280546104e09061233d565b801561052d5780601f106105025761010080835404028352916020019161052d565b820191906000526020600020905b81548152906001019060200180831161051057829003601f168201915b5050505050905090565b600061054282610c09565b506000908152600460205260409020546001600160a01b031690565b6000610569826108f5565b9050806001600160a01b0316836001600160a01b031614156105dc5760405162461bcd60e51b815260206004820152602160248201527f4552433732313a20617070726f76616c20746f2063757272656e74206f776e656044820152603960f91b60648201526084015b60405180910390fd5b336001600160a01b03821614806105f857506105f88133610466565b61066a5760405162461bcd60e51b815260206004820152603e60248201527f4552433732313a20617070726f76652063616c6c6572206973206e6f7420746f60448201527f6b656e206f776e6572206e6f7220617070726f76656420666f7220616c6c000060648201526084016105d3565b6106748383610c68565b505050565b610684335b82610cd6565b6106a05760405162461bcd60e51b81526004016105d390612378565b610674838383610d55565b6000828152600c60205260409020600101546106c681610efc565b6106748383610f06565b60006106db83610955565b821061073d5760405162461bcd60e51b815260206004820152602b60248201527f455243373231456e756d657261626c653a206f776e657220696e646578206f7560448201526a74206f6620626f756e647360a81b60648201526084016105d3565b506001600160a01b03919091166000908152600660209081526040808320938352929052205490565b6001600160a01b03811633146107d65760405162461bcd60e51b815260206004820152602f60248201527f416363657373436f6e74726f6c3a2063616e206f6e6c792072656e6f756e636560448201526e103937b632b9903337b91039b2b63360891b60648201526084016105d3565b6107e08282610f28565b5050565b7f65d7a28e3265b37a6474929f336521b332c1681b933f6cb9f3376673440d862a61080e81610efc565b610816610f4a565b50565b61067483838360405180602001604052806000815250610a71565b61083d3361067e565b6108595760405162461bcd60e51b81526004016105d390612378565b61081681610f9c565b600061086d60085490565b82106108d05760405162461bcd60e51b815260206004820152602c60248201527f455243373231456e756d657261626c653a20676c6f62616c20696e646578206f60448201526b7574206f6620626f756e647360a01b60648201526084016105d3565b600882815481106108e3576108e36123c6565b90600052602060002001549050919050565b6000818152600260205260408120546001600160a01b03168061049f5760405162461bcd60e51b8152602060048201526018602482015277115490cdcc8c4e881a5b9d985b1a59081d1bdad95b88125160421b60448201526064016105d3565b60006001600160a01b0382166109bf5760405162461bcd60e51b815260206004820152602960248201527f4552433732313a2061646472657373207a65726f206973206e6f7420612076616044820152683634b21037bbb732b960b91b60648201526084016105d3565b506001600160a01b031660009081526003602052604090205490565b7f65d7a28e3265b37a6474929f336521b332c1681b933f6cb9f3376673440d862a610a0581610efc565b610816610fa5565b6000828152600d60205260408120610a259083610fe2565b9392505050565b6000918252600c602090815260408084206001600160a01b0393909316845291905290205460ff1690565b6060600180546104b49061233d565b6107e0338383610fee565b610a7b3383610cd6565b610a975760405162461bcd60e51b81526004016105d390612378565b610aa3848484846110bd565b50505050565b606061049f826110f0565b6000818152600d6020526040812061049f906111f9565b7f9f2df0fed2c77648de5860a4cc508cd0818c85b8b8a1ab4ceeef8d981c8956a6610af581610efc565b6000610b00600e5490565b9050610b10600e80546001019055565b610b1a8482611203565b610aa3818461121d565b6000828152600c6020526040902060010154610b3f81610efc565b6106748383610f28565b610b538282610a2c565b6107e0576000828152600c602090815260408083206001600160a01b03851684529091529020805460ff19166001179055610b8b3390565b6001600160a01b0316816001600160a01b0316837f2f8788117e7eff1d82e926ec794901d17c78024a50270940304540a733656f0d60405160405180910390a45050565b6000610a25836001600160a01b0384166112b7565b60006001600160e01b03198216635a05180f60e01b148061049f575061049f82611306565b6000818152600260205260409020546001600160a01b03166108165760405162461bcd60e51b8152602060048201526018602482015277115490cdcc8c4e881a5b9d985b1a59081d1bdad95b88125160421b60448201526064016105d3565b600081815260046020526040902080546001600160a01b0319166001600160a01b0384169081179091558190610c9d826108f5565b6001600160a01b03167f8c5be1e5ebec7d5bd14f71427d1e84f3dd0314c0f7b2291e5b200ac8c7c3b92560405160405180910390a45050565b600080610ce2836108f5565b9050806001600160a01b0316846001600160a01b03161480610d2957506001600160a01b0380821660009081526005602090815260408083209388168352929052205460ff165b80610d4d5750836001600160a01b0316610d4284610537565b6001600160a01b0316145b949350505050565b826001600160a01b0316610d68826108f5565b6001600160a01b031614610dcc5760405162461bcd60e51b815260206004820152602560248201527f4552433732313a207472616e736665722066726f6d20696e636f72726563742060448201526437bbb732b960d91b60648201526084016105d3565b6001600160a01b038216610e2e5760405162461bcd60e51b8152602060048201526024808201527f4552433732313a207472616e7366657220746f20746865207a65726f206164646044820152637265737360e01b60648201526084016105d3565b610e3983838361132b565b610e44600082610c68565b6001600160a01b0383166000908152600360205260408120805460019290610e6d9084906123f2565b90915550506001600160a01b0382166000908152600360205260408120805460019290610e9b908490612409565b909155505060008181526002602052604080822080546001600160a01b0319166001600160a01b0386811691821790925591518493918716917fddf252ad1be2c89b69c2b068fc378daa952ba7f163c4a11628f55a4df523b3ef91a4505050565b610816813361133e565b610f108282610b49565b6000828152600d602052604090206106749082610bcf565b610f3282826113a2565b6000828152600d602052604090206106749082611409565b610f5261141e565b600b805460ff191690557f5db9ee0a495bf2e6ff9c91a7834c1ba4fdd244a5e8aa4e537bd38aeae4b073aa335b6040516001600160a01b03909116815260200160405180910390a1565b61081681611469565b610fad6114a9565b600b805460ff191660011790557f62e78cea01bee320cd4e420270b5ea74000d11b0c9f74754ebdbfc544b05a258610f7f3390565b6000610a2583836114ef565b816001600160a01b0316836001600160a01b031614156110505760405162461bcd60e51b815260206004820152601960248201527f4552433732313a20617070726f766520746f2063616c6c65720000000000000060448201526064016105d3565b6001600160a01b03838116600081815260056020908152604080832094871680845294825291829020805460ff191686151590811790915591519182527f17307eab39ab6107e8899845ad3d59bd9653f200f220920489ca2b5937696c31910160405180910390a3505050565b6110c8848484610d55565b6110d484848484611519565b610aa35760405162461bcd60e51b81526004016105d390612421565b60606110fb82610c09565b6000828152600a6020526040812080546111149061233d565b80601f01602080910402602001604051908101604052809291908181526020018280546111409061233d565b801561118d5780601f106111625761010080835404028352916020019161118d565b820191906000526020600020905b81548152906001019060200180831161117057829003601f168201915b5050505050905060006111ab60408051602081019091526000815290565b90508051600014156111be575092915050565b8151156111f05780826040516020016111d8929190612473565b60405160208183030381529060405292505050919050565b610d4d84611617565b600061049f825490565b6107e082826040518060200160405280600081525061168a565b6000828152600260205260409020546001600160a01b03166112985760405162461bcd60e51b815260206004820152602e60248201527f45524337323155524953746f726167653a2055524920736574206f66206e6f6e60448201526d32bc34b9ba32b73a103a37b5b2b760911b60648201526084016105d3565b6000828152600a60209081526040909120825161067492840190611efc565b60008181526001830160205260408120546112fe5750815460018181018455600084815260208082209093018490558454848252828601909352604090209190915561049f565b50600061049f565b60006001600160e01b03198216637965db0b60e01b148061049f575061049f826116bd565b6113336114a9565b6106748383836116e2565b6113488282610a2c565b6107e057611360816001600160a01b0316601461179a565b61136b83602061179a565b60405160200161137c9291906124a2565b60408051601f198184030181529082905262461bcd60e51b82526105d391600401612056565b6113ac8282610a2c565b156107e0576000828152600c602090815260408083206001600160a01b0385168085529252808320805460ff1916905551339285917ff6391f5c32d9c69d2a47ea670b442974b53935d1edc7fd64eb21e047a839171b9190a45050565b6000610a25836001600160a01b038416611936565b600b5460ff166114675760405162461bcd60e51b815260206004820152601460248201527314185d5cd8589b194e881b9bdd081c185d5cd95960621b60448201526064016105d3565b565b61147281611a29565b6000818152600a60205260409020805461148b9061233d565b159050610816576000818152600a6020526040812061081691611f80565b600b5460ff16156114675760405162461bcd60e51b815260206004820152601060248201526f14185d5cd8589b194e881c185d5cd95960821b60448201526064016105d3565b6000826000018281548110611506576115066123c6565b9060005260206000200154905092915050565b60006001600160a01b0384163b1561160c57604051630a85bd0160e11b81526001600160a01b0385169063150b7a029061155d903390899088908890600401612517565b6020604051808303816000875af1925050508015611598575060408051601f3d908101601f1916820190925261159591810190612554565b60015b6115f2573d8080156115c6576040519150601f19603f3d011682016040523d82523d6000602084013e6115cb565b606091505b5080516115ea5760405162461bcd60e51b81526004016105d390612421565b805181602001fd5b6001600160e01b031916630a85bd0160e11b149050610d4d565b506001949350505050565b606061162282610c09565b600061163960408051602081019091526000815290565b905060008151116116595760405180602001604052806000815250610a25565b8061166384611ad0565b604051602001611674929190612473565b6040516020818303038152906040529392505050565b6116948383611bce565b6116a16000848484611519565b6106745760405162461bcd60e51b81526004016105d390612421565b60006001600160e01b0319821663780e9d6360e01b148061049f575061049f82611d1c565b6001600160a01b03831661173d5761173881600880546000838152600960205260408120829055600182018355919091527ff3f7a9fe364faab93b216da50a3214154f22a0a2b415b23a84c8169e8b636ee30155565b611760565b816001600160a01b0316836001600160a01b031614611760576117608382611d6c565b6001600160a01b0382166117775761067481611e09565b826001600160a01b0316826001600160a01b031614610674576106748282611eb8565b606060006117a9836002612571565b6117b4906002612409565b67ffffffffffffffff8111156117cc576117cc6121a9565b6040519080825280601f01601f1916602001820160405280156117f6576020820181803683370190505b509050600360fc1b81600081518110611811576118116123c6565b60200101906001600160f81b031916908160001a905350600f60fb1b81600181518110611840576118406123c6565b60200101906001600160f81b031916908160001a9053506000611864846002612571565b61186f906001612409565b90505b60018111156118e7576f181899199a1a9b1b9c1cb0b131b232b360811b85600f16601081106118a3576118a36123c6565b1a60f81b8282815181106118b9576118b96123c6565b60200101906001600160f81b031916908160001a90535060049490941c936118e081612590565b9050611872565b508315610a255760405162461bcd60e51b815260206004820181905260248201527f537472696e67733a20686578206c656e67746820696e73756666696369656e7460448201526064016105d3565b60008181526001830160205260408120548015611a1f57600061195a6001836123f2565b855490915060009061196e906001906123f2565b90508181146119d357600086600001828154811061198e5761198e6123c6565b90600052602060002001549050808760000184815481106119b1576119b16123c6565b6000918252602080832090910192909255918252600188019052604090208390555b85548690806119e4576119e46125a7565b60019003818190600052602060002001600090559055856001016000868152602001908152602001600020600090556001935050505061049f565b600091505061049f565b6000611a34826108f5565b9050611a428160008461132b565b611a4d600083610c68565b6001600160a01b0381166000908152600360205260408120805460019290611a769084906123f2565b909155505060008281526002602052604080822080546001600160a01b0319169055518391906001600160a01b038416907fddf252ad1be2c89b69c2b068fc378daa952ba7f163c4a11628f55a4df523b3ef908390a45050565b606081611af45750506040805180820190915260018152600360fc1b602082015290565b8160005b8115611b1e5780611b08816125bd565b9150611b179050600a836125ee565b9150611af8565b60008167ffffffffffffffff811115611b3957611b396121a9565b6040519080825280601f01601f191660200182016040528015611b63576020820181803683370190505b5090505b8415610d4d57611b786001836123f2565b9150611b85600a86612602565b611b90906030612409565b60f81b818381518110611ba557611ba56123c6565b60200101906001600160f81b031916908160001a905350611bc7600a866125ee565b9450611b67565b6001600160a01b038216611c245760405162461bcd60e51b815260206004820181905260248201527f4552433732313a206d696e7420746f20746865207a65726f206164647265737360448201526064016105d3565b6000818152600260205260409020546001600160a01b031615611c895760405162461bcd60e51b815260206004820152601c60248201527f4552433732313a20746f6b656e20616c7265616479206d696e7465640000000060448201526064016105d3565b611c956000838361132b565b6001600160a01b0382166000908152600360205260408120805460019290611cbe908490612409565b909155505060008181526002602052604080822080546001600160a01b0319166001600160a01b03861690811790915590518392907fddf252ad1be2c89b69c2b068fc378daa952ba7f163c4a11628f55a4df523b3ef908290a45050565b60006001600160e01b031982166380ac58cd60e01b1480611d4d57506001600160e01b03198216635b5e139f60e01b145b8061049f57506301ffc9a760e01b6001600160e01b031983161461049f565b60006001611d7984610955565b611d8391906123f2565b600083815260076020526040902054909150808214611dd6576001600160a01b03841660009081526006602090815260408083208584528252808320548484528184208190558352600790915290208190555b5060009182526007602090815260408084208490556001600160a01b039094168352600681528383209183525290812055565b600854600090611e1b906001906123f2565b60008381526009602052604081205460088054939450909284908110611e4357611e436123c6565b906000526020600020015490508060088381548110611e6457611e646123c6565b6000918252602080832090910192909255828152600990915260408082208490558582528120556008805480611e9c57611e9c6125a7565b6001900381819060005260206000200160009055905550505050565b6000611ec383610955565b6001600160a01b039093166000908152600660209081526040808320868452825280832085905593825260079052919091209190915550565b828054611f089061233d565b90600052602060002090601f016020900481019282611f2a5760008555611f70565b82601f10611f4357805160ff1916838001178555611f70565b82800160010185558215611f70579182015b82811115611f70578251825591602001919060010190611f55565b50611f7c929150611fb6565b5090565b508054611f8c9061233d565b6000825580601f10611f9c575050565b601f01602090049060005260206000209081019061081691905b5b80821115611f7c5760008155600101611fb7565b6001600160e01b03198116811461081657600080fd5b600060208284031215611ff357600080fd5b8135610a2581611fcb565b60005b83811015612019578181015183820152602001612001565b83811115610aa35750506000910152565b60008151808452612042816020860160208601611ffe565b601f01601f19169290920160200192915050565b602081526000610a25602083018461202a565b60006020828403121561207b57600080fd5b5035919050565b80356001600160a01b038116811461209957600080fd5b919050565b600080604083850312156120b157600080fd5b6120ba83612082565b946020939093013593505050565b6000806000606084860312156120dd57600080fd5b6120e684612082565b92506120f460208501612082565b9150604084013590509250925092565b6000806040838503121561211757600080fd5b8235915061212760208401612082565b90509250929050565b60006020828403121561214257600080fd5b610a2582612082565b6000806040838503121561215e57600080fd5b50508035926020909101359150565b6000806040838503121561218057600080fd5b61218983612082565b91506020830135801515811461219e57600080fd5b809150509250929050565b634e487b7160e01b600052604160045260246000fd5b600067ffffffffffffffff808411156121da576121da6121a9565b604051601f8501601f19908116603f01168101908282118183101715612202576122026121a9565b8160405280935085815286868601111561221b57600080fd5b858560208301376000602087830101525050509392505050565b6000806000806080858703121561224b57600080fd5b61225485612082565b935061226260208601612082565b925060408501359150606085013567ffffffffffffffff81111561228557600080fd5b8501601f8101871361229657600080fd5b6122a5878235602084016121bf565b91505092959194509250565b600080604083850312156122c457600080fd5b6122cd83612082565b9150602083013567ffffffffffffffff8111156122e957600080fd5b8301601f810185136122fa57600080fd5b612309858235602084016121bf565b9150509250929050565b6000806040838503121561232657600080fd5b61232f83612082565b915061212760208401612082565b600181811c9082168061235157607f821691505b6020821081141561237257634e487b7160e01b600052602260045260246000fd5b50919050565b6020808252602e908201527f4552433732313a2063616c6c6572206973206e6f7420746f6b656e206f776e6560408201526d1c881b9bdc88185c1c1c9bdd995960921b606082015260800190565b634e487b7160e01b600052603260045260246000fd5b634e487b7160e01b600052601160045260246000fd5b600082821015612404576124046123dc565b500390565b6000821982111561241c5761241c6123dc565b500190565b60208082526032908201527f4552433732313a207472616e7366657220746f206e6f6e20455243373231526560408201527131b2b4bb32b91034b6b83632b6b2b73a32b960711b606082015260800190565b60008351612485818460208801611ffe565b835190830190612499818360208801611ffe565b01949350505050565b7f416363657373436f6e74726f6c3a206163636f756e74200000000000000000008152600083516124da816017850160208801611ffe565b7001034b99036b4b9b9b4b733903937b6329607d1b601791840191820152835161250b816028840160208801611ffe565b01602801949350505050565b6001600160a01b038581168252841660208201526040810183905260806060820181905260009061254a9083018461202a565b9695505050505050565b60006020828403121561256657600080fd5b8151610a2581611fcb565b600081600019048311821515161561258b5761258b6123dc565b500290565b60008161259f5761259f6123dc565b506000190190565b634e487b7160e01b600052603160045260246000fd5b60006000198214156125d1576125d16123dc565b5060010190565b634e487b7160e01b600052601260045260246000fd5b6000826125fd576125fd6125d8565b500490565b600082612611576126116125d8565b50069056fea2646970667358221220f155f90077d94646994d3b646b80888a9af90a9477db3db6077731454b40edba64736f6c634300080c003365d7a28e3265b37a6474929f336521b332c1681b933f6cb9f3376673440d862a9f2df0fed2c77648de5860a4cc508cd0818c85b8b8a1ab4ceeef8d981c8956a6",
  "linkReferences": {},
  "deployedLinkReferences": {}
}